:020000040000fa
:080000000002040000000000f2
:020000040000fa
:040008004c040000a4
:020000040000fa
:04000c00c802000026
:020000040000fa
:04001000da02000010
:020000040000fa
:04001400d002000016
:020000040000fa
:04001800e202000000
:020000040000fa
:04001c004c04000090
:020000040000fa
:040020004c0400008c
:020000040000fa
:040024004c04000088
:020000040000fa
:040028004c04000084
:020000040000fa
:04002c004c04000080
:020000040000fa
:040030004c0400007c
:020000040000fa
:040034004c04000078
:020000040000fa
:040038004c04000074
:020000040000fa
:04003c004c04000070
:020000040000fa
:040040004c0400006c
:020000040000fa
:040044004c04000068
:020000040000fa
:040048004c04000064
:020000040000fa
:04004c004c04000060
:020000040000fa
:040050004c0400005c
:020000040000fa
:040054004c04000058
:020000040000fa
:040058004c04000054
:020000040000fa
:04005c004c04000050
:020000040000fa
:040060004c0400004c
:020000040000fa
:040064004c04000048
:020000040000fa
:04006800ea020000a8
:020000040000fa
:04006c004c04000040
:020000040000fa
:040070004c0400003c
:020000040000fa
:040074004c04000038
:020000040000fa
:040078004c04000034
:020000040000fa
:04007c004c04000030
:020000040000fa
:040080004c0400002c
:020000040000fa
:040084004c04000028
:020000040000fa
:040088004c04000024
:020000040000fa
:04008c004c04000020
:020000040000fa
:040090004c0400001c
:020000040000fa
:040094004c04000018
:020000040000fa
:040098004c04000014
:020000040000fa
:04009c004c04000010
:020000040000fa
:0400a0004c0400000c
:020000040000fa
:0400a4004c04000008
:020000040000fa
:0400a8004c04000004
:020000040000fa
:0400ac004c04000000
:020000040000fa
:0400b0004c040000fc
:020000040000fa
:0400b4004c040000f8
:020000040000fa
:0400b8004c040000f4
:020000040000fa
:0400bc004c040000f0
:020000040000fa
:0400c0004c040000ec
:020000040000fa
:0400c4004c040000e8
:020000040000fa
:0400c8004c040000e4
:020000040000fa
:0400cc004c040000e0
:020000040000fa
:0400d0004c040000dc
:020000040000fa
:0400d4004c040000d8
:020000040000fa
:0400d8004c040000d4
:020000040000fa
:0400dc004c040000d0
:020000040000fa
:0400e0004c040000cc
:020000040000fa
:0400e4004c040000c8
:020000040000fa
:0400e8004c040000c4
:020000040000fa
:0400ec004c040000c0
:020000040000fa
:0400f0004c040000bc
:020000040000fa
:0400f4004c040000b8
:020000040000fa
:0400f8004c040000b4
:020000040000fa
:0400fc004c040000b0
:020000040000fa
:040100004c040000ab
:020000040000fa
:040104004c040000a7
:020000040000fa
:040108004c040000a3
:020000040000fa
:04010c004c0400009f
:020000040000fa
:040110004c0400009b
:020000040000fa
:040114004c04000097
:020000040000fa
:040118004c04000093
:020000040000fa
:04011c004c0400008f
:020000040000fa
:040120004c0400008b
:020000040000fa
:040124004c04000087
:020000040000fa
:040128004c04000083
:020000040000fa
:04012c004c0400007f
:020000040000fa
:040130004c0400007b
:020000040000fa
:040134004c04000077
:020000040000fa
:040138004c04000073
:020000040000fa
:04013c004c0400006f
:020000040000fa
:040140004c0400006b
:020000040000fa
:040144004c04000067
:020000040000fa
:040148004c04000063
:020000040000fa
:04014c004c0400005f
:020000040000fa
:040150004c0400005b
:020000040000fa
:040154004c04000057
:020000040000fa
:040158004c04000053
:020000040000fa
:04015c004c0400004f
:020000040000fa
:040160004c0400004b
:020000040000fa
:040164004c04000047
:020000040000fa
:040168004c04000043
:020000040000fa
:040208004c040000a2
:020000040000fa
:04020c00c802000024
:020000040000fa
:04021000da0200000e
:020000040000fa
:04021400d002000014
:020000040000fa
:04021800e2020000fe
:020000040000fa
:04021c004c0400008e
:020000040000fa
:040220004c0400008a
:020000040000fa
:040224004c04000086
:020000040000fa
:040228004c04000082
:020000040000fa
:04022c004c0400007e
:020000040000fa
:040230004c0400007a
:020000040000fa
:040234004c04000076
:020000040000fa
:040238004c04000072
:020000040000fa
:04023c004c0400006e
:020000040000fa
:040240004c0400006a
:020000040000fa
:040244004c04000066
:020000040000fa
:040248004c04000062
:020000040000fa
:04024c004c0400005e
:020000040000fa
:040250004c0400005a
:020000040000fa
:040254004c04000056
:020000040000fa
:040258004c04000052
:020000040000fa
:04025c004c0400004e
:020000040000fa
:040260004c0400004a
:020000040000fa
:040264004c04000046
:020000040000fa
:04026800ea020000a6
:020000040000fa
:04026c004c0400003e
:020000040000fa
:040270004c0400003a
:020000040000fa
:040274004c04000036
:020000040000fa
:040278004c04000032
:020000040000fa
:04027c004c0400002e
:020000040000fa
:040280004c0400002a
:020000040000fa
:040284004c04000026
:020000040000fa
:040288004c04000022
:020000040000fa
:04028c004c0400001e
:020000040000fa
:040290004c0400001a
:020000040000fa
:040294004c04000016
:020000040000fa
:040298004c04000012
:020000040000fa
:04029c004c0400000e
:020000040000fa
:0402a0004c0400000a
:020000040000fa
:0402a4004c04000006
:020000040000fa
:0402a8004c04000002
:020000040000fa
:0402ac004c040000fe
:020000040000fa
:0402b0004c040000fa
:020000040000fa
:0402b4004c040000f6
:020000040000fa
:0402b8004c040000f2
:020000040000fa
:0402bc004c040000ee
:020000040000fa
:0402c0004c040000ea
:020000040000fa
:0402c4004c040000e6
:020000040000fa
:0402c8004c040000e2
:020000040000fa
:0402cc004c040000de
:020000040000fa
:0402d0004c040000da
:020000040000fa
:0402d4004c040000d6
:020000040000fa
:0402d8004c040000d2
:020000040000fa
:0402dc004c040000ce
:020000040000fa
:0402e0004c040000ca
:020000040000fa
:0402e4004c040000c6
:020000040000fa
:0402e8004c040000c2
:020000040000fa
:0402ec004c040000be
:020000040000fa
:0402f0004c040000ba
:020000040000fa
:0402f4004c040000b6
:020000040000fa
:0402f8004c040000b2
:020000040000fa
:0402fc004c040000ae
:020000040000fa
:040300004c040000a9
:020000040000fa
:040304004c040000a5
:020000040000fa
:040308004c040000a1
:020000040000fa
:04030c004c0400009d
:020000040000fa
:040310004c04000099
:020000040000fa
:040314004c04000095
:020000040000fa
:040318004c04000091
:020000040000fa
:04031c004c0400008d
:020000040000fa
:040320004c04000089
:020000040000fa
:040324004c04000085
:020000040000fa
:040328004c04000081
:020000040000fa
:04032c004c0400007d
:020000040000fa
:040330004c04000079
:020000040000fa
:040334004c04000075
:020000040000fa
:040338004c04000071
:020000040000fa
:04033c004c0400006d
:020000040000fa
:040340004c04000069
:020000040000fa
:040344004c04000065
:020000040000fa
:040348004c04000061
:020000040000fa
:04034c004c0400005d
:020000040000fa
:040350004c04000059
:020000040000fa
:040354004c04000055
:020000040000fa
:040358004c04000051
:020000040000fa
:04035c004c0400004d
:020000040000fa
:040360004c04000049
:020000040000fa
:040364004c04000045
:020000040000fa
:040368004c04000041
:020000040000fa
:10040000af8320000eff20000e01880000000000d6
:10041000000020000000e000020032000001200087
:1004200020028800140007001d0107000000e00002
:1004300003003a00406d2000010020000200370058
:100440000000200001002000810f70000100320038
:1004500014000700000020000000e000020032004d
:10046000000002000000000016050200000000006d
:100470000040da000000fe004440a9000000200017
:100480000000e0000300320000002000a00188000e
:100490004440a800000006008a1f78008b1f7800e7
:1004a0000000060091018800800478000000eb0045
:1004b0001a003700e284440032a0b4009905ba0063
:1004c000e284440032a0b4009906ba00e2844400f9
:1004d00032a0b4000006eb00476fde00fd07b2005b
:1004e000636ce10003003a00ebff07000000eb0043
:1004f0000a003700606ce10004003a00005deb0088
:100500008b05e900fdff3e00040037006168e10053
:10051000010032000086eb000b00070019c7ba008b
:100520001905ba000e04e00003003a000a00e000da
:10053000e0ff3a0000000600fe07b2009e018800be
:100540008a047800f5ff3700395dba008b05e900b1
:100550000c003200295dba008b05e900080032006a
:100560000c00e00003003a00e284440032a0b40032
:10057000f5ff370019ddba008b05e900faff3a00f4
:100580008904e800e184440032a0b40000000600c1
:100590003600f8008020a9000000eb003d020700b3
:1005a0003600f8003f0207008040a900100020003c
:1005b000380207003600f8008060a9002000200003
:1005c000340207003600f8008080a90030002000c7
:1005d000300207003600f800809fbe00829fbe00f8
:1005e000849fbe00869fbe000200fa00504180003a
:1005f000e20f500088003200e20f50000300390083
:10060000e30f500077003200950037003110800072
:1006100000402000008060000000e00005003a007b
:100620004110800000022000008060000000e00017
:100630000a003200311080000008200000806000b5
:100640000000e00024003200411080000020200063
:10065000008060000000e0001f00320040108000b9
:10066000640060000000e0000c003a001000200070
:1006700096000700604180000000e00004003200a6
:1006800060418000011080008140780001487800be
:100690001000200050418800360037000010800014
:1006a000004f78000000eb008800070070418000d8
:1006b0000000e0000500320070418000104078002a
:1006c0000080fb00101088000782a8002000200096
:1006d0005041880027003700311080000040200082
:1006e000008060000000e000220032004110800025
:1006f00000022000008060000000e0001d003a00c1
:1007000040108000640060000000e00004003a0037
:100710003068ef003000200050418800130037009f
:1007200030c8bf000004e0000d0032000000eb0004
:1007300066000700704180000000e0000500320004
:1007400070418000104078000080fb00101088008d
:100750000782a800200020005041880003003700d5
:100760003068ef0030002000504188000010800009
:10077000004f780050418000e10f500039003a00ee
:100780004110800000022000008060000000e000b6
:10079000360032004110800000042000008060001c
:1007a0000000e0000b003a00604180000000e00023
:1007b0000400320060418000011080008140780018
:1007c00001487800200020004000070036e8b7000c
:1007d0002900370000108000004f780008c2a900ef
:1007e00025003700300020003800070036e8b70049
:1007f00010c0b30030e8b70036c8bf000004e00006
:100800000200320000108000004f7800100020002d
:100810005041880018003700411080000000280077
:10082000008060000000e0000b003a000000eb00d8
:1008300026000700704180000000e0000d0032003b
:1008400070418000104078000080fb00101088008c
:100850000782a800080037002a28ef0006003700aa
:10086000ffff370000000000030037000000000019
:1008700001003700000000008600a9000080fa0097
:100880004f03be004f02be004f01be004f00be002e
:100890003600f900004006000040da000000fe00cb
:0408a000000005004f
:020000040000fa
:1008a4000000fa000600fc0011028000f141b200d1
:1008b400110288000080fa00000006000000fa001f
:1008c4000080fa00000006000400fa0010079800f7
:1008d40000c0eb00004f780000c0eb001047980008
:1008e40024c8bf000004e0000500320022c8bf0095
:1008f400004f780023c8bf00104798002468ef0019
:100904001e009000e10f500010003200e10f500073
:1009140003003900e20f5000120032003f0037009c
:1009240030418000800047000000e800304188002a
:1009340001007800c100070030418000e10f500041
:10094400310036002628ef00340037002828ef0055
:1009540010c0b30039e8b70080832000bd00070051
:100964002e00370039c8bf000004e0001b0032002d
:10097400404180000000e00008003a0038c8bf0091
:100984000080fb004800dd003041880040418000c9
:100994000000e800404188000a0037004041800020
:1009a400e10f500007003a0038c8bf008080fb0008
:1009b4003041800001007000304188002828ef0099
:1009c4003968ef0030418000e10f5000100036001c
:1009d40020002000304188001000370030418000a2
:1009e4008183200091407800017778000000e800be
:1009f4003041880030418000e10f5000060036008d
:100a04002628ef000500370000000000030037002f
:100a140000000000010037000000000010c0b30017
:100a24000080fa00000006000200fa00230107001b
:100a34000a0107009aff0700c002a900803e2000b7
:100a4400000f78006c000700000000004b00070056
:100a54000004a2000004e000fcff3a004300070089
:100a640000418800004180000040780022e8b7007f
:100a7400004180004800de000040780023e8b70011
:100a840010c0b30024e8b70000000000efff3700f7
:100a94000000fa0040472800001a880000402000a7
:100aa400101a880000f02800201a88004823ef005c
:100ab4004e23ef0020002000801a88005423ef000a
:100ac4005623ef005823ef006023ef006223ef006a
:100ad400101a80004200de007f40600034e8b70056
:100ae4000080fa00000006000000fa004023a8007d
:100af4000080fa00000006000000fa004023a9006c
:100b04000080fa00000006000600fa0020079800a2
:100b140000302000100798000000eb00000f780060
:100b24000b0037001e00780000004000ae0090006b
:100b3400008040009e009000910078000108780039
:100b44001e0090000080e800100798001e0fe800c7
:100b540034c8bf000080fb009e0f5000f1ff3d0031
:100b64001e0078000080fa00000006000000fa0071
:100b7400001880000080fa00000006000000fa005f
:100b8400001a800000407800614060000080fb0093
:100b940000f0a7000000ea000000ea004f00de00b9
:100ba400004078000080fa00000006000200fa000d
:100bb400000f78009e007800411a88000080fa0037
:100bc400000006000000fa000080fa0000000600a1
:100bd4000000fa0021048000000022000080600070
:100be4000000e00002003200f6ff070085a0a90023
:100bf4000080fa00000006000000fa00000028004f
:100c0400301088000822ef00900020002500070023
:100c14000000eb001d0007002a28ef000000eb0095
:100c2400060007000000eb000a0007008600a90088
:100c34009600a8000080fa00000006000200fa00f6
:100c4400000f78009e007800714188000080fa004f
:100c5400000006000200fa00000f78009e007800f1
:100c6400614188000080fa00000006000000fa00dc
:100c7400704180000080fa00000006000000fa00c5
:100c8400604180000080fa00000006000200fa00c3
:100c9400000f78009e007800611088000080fa0040
:100ca400000006000200fa00000f7800f0072000a0
:100cb4009e007800808f5000020036000742a80092
:100cc400010037000742a9002a28ef009e0078009f
:100cd400511088000080fa00000006000000fa00ad
:100ce400704180000000e000060032007041800086
:100cf400104078000080fb00101088000782a800d4
:100d040001003700000000000080fa000000060027
:100d14000000fa00604180000000e000050032009d
:100d24006041800001108000814078000148780013
:100d340001003700000000000080fa0000000600f7
:100d44000000fa0000102300203a88004827ef0032
:100d54004e27ef007027ef007227ef007427ef0093
:100d64007627ef000001eb0080072000a109200096
:100d740033742000804978008149780082497800e2
:100d84000001eb00600420007105200023742000a2
:100d94008049780081497800824978000080fa000f
:040da4000000060045
:020000040000fa
:100da800320800000200000002000000ffff0000ff
:100db80000080000200000000000000034080000c7
:100dc80002000000000000002a08000008000000df
:100dd80000000000360800000200000002000000c9
:100de80001000000200800000a00000000000000c8
:100df800380800000200000002000000aa010000fc
:040e080000000000e6
:020000040000fa
:100e0c000000fa00c422ef00cc22ef007009200091
:100e1c0000168800b0ff2f00401688005620ef0007
:100e2c005820ef005a20ef006e20ef007020ef00ea
:100e3c007220ef00c622ef00ce22ef0070002000df
:100e4c000027880080012f00102788000080fa00fe
:100e5c00000006000000fa0061058000f0f82f0089
:100e6c00008060000040a0006005880061058000e3
:100e7c0080ff2f00008060000000a000600588004b
:100e8c000080fa0000000600000f78009e00780039
:100e9c0091418800ffff37000000fa00008020001d
:100eac008007780080812000000188000080fa0013
:100ebc00000006000000fa00d1ff07009eff0700ab
:100ecc00e4ff0700f0fe070049ff07000080fa006e
:100edc00000006000000fa0097ff07000080fa00ef
:100eec00000006000000fa000080fa000000060076
:020000040000fa
:0200000401f009
:04000000ffff0000fe
:020000040000fa
:0200000401f009
:04000800ffff0000f6
:020000040000fa
:0200000401f009
:04000c0078ff000079
:020000040000fa
:0200000401f009
:04001000bfff00002e
:020000040000fa
:0200000401f009
:040014001fff0000ca
:020000040000fa
:0200000401f009
:04001800ffff0000e6
:020000040000fa
:0200000401f009
:04001c00ffff0000e2
:020000040000fa
:0200000401f009
:04002000ffff0000de
:00000001FF
